:020000040800F2
:10000000E0080020DD0100087F460008452D0008BB
:100010007D460008B90800085151000800000000A2
:100020000000000000000000000000005949000826
:100030004511000800000000AD4800082D4B0008E5
:10004000F7010008F7010008F7010008F7010008B0
:10005000F7010008F7010008F7010008F7010008A0
:10006000F7010008F7010008F7010008F701000890
:10007000F7010008F7010008F7010008F701000880
:10008000F7010008F7010008F7010008F701000870
:10009000F7010008F7010008F7010008F701000860
:1000A000F7010008F7010008594C0008394C000816
:1000B000F7010008F7010008654C0008F701000887
:1000C000F7010008F7010008F7010008F701000830
:1000D000F7010008F7010008F7010008F701000820
:1000E000F7010008F7010008F7010008F701000810
:1000F000F7010008F7010008F7010008F701000800
:10010000F7010008F7010008F7010008F7010008EF
:10011000F7010008F70100087D4C0008F70100080E
:10012000F7010008F7010008F7010008F7010008CF
:10013000F70100080000000000000000F7010008BF
:10014000F7010008F7010008F7010008F7010008AF
:10015000F7010008F7010008F7010008F70100089F
:10016000F7010008F7010008F7010008F70100088F
:10017000F7010008F7010008F7010008000000007F
:1001800000000000F701000800000000000000006F
:10019000F70100080000000000000000F70100085F
:1001A000000000000000000000000000F70100084F
:1001B000F7010008F7010008F7010008F70100083F
:1001C000F7010008DFF810D000F038FA00480047C7
:1001D000615A0008AFF30080E0080020064880471D
:1001E00006480047FEE7FEE7FEE7FEE7FEE7FEE71C
:1001F000FEE7FEE7FEE7FEE7E54B0008C501000865
:100200002DE9F05F0546002092469B46884606464B
:10021000814640241BE0284641464746224600F0DE
:1002200045F853465A46C01A914110D31146184614
:10023000224600F02CF82D1A67EB01084F462246A3
:100240000120002100F023F817EB00094E41201E89
:10025000A4F10104DFDC484631462A464346BDE8A6
:10026000F09F30B50B46014600202022012409E012
:1002700021FA02F59D4205D303FA02F5491B04FA5F
:1002800002F52844151EA2F10102F1DC30BD202A3E
:1002900004DB203A00FA02F1002070479140C2F1DD
:1002A000200320FA03F3194390407047202A04DB0F
:1002B000203A21FA02F00021704721FA02F3D040DF
:1002C000C2F1200291400843194670472DE9FE4FC4
:1002D000804681EA0300C00F0C46009021F00041E7
:1002E00023F00045B8EB0200A94105D24046214663
:1002F00090461C460B46024623F00040104347D070
:10030000270DC7F30A00C3F30A510290401A019067
:1003100040286BDAC3F3130040F4801B0098924628
:1003200020B10023D2EB030A63EB0B0B0198594673
:10033000C0F140025046FFF7AAFF06460D46504660
:100340005946019A00F08CF910EB08006141002435
:1003500087EA115284EAE7731A4340D0009A62B3E5
:10036000019A012A4FEA075215DC001B61EB0201DA
:100370004FF0004202EA0752CDE90042001C41F56D
:10038000801132462B4600F08CF903B0BDE8F08FA7
:1003900040462146F9E7001B61EB0201001C41F5D4
:1003A000801300185B412018A2F5001747EB0301EA
:1003B00040EAD570B6196D4111E06D084FEA360676
:1003C00045EAC0754FEA0752001B61EB0201001CB1
:1003D00041F5801149084FEA300000195141324679
:1003E0002B4603B0BDE8F04F00F04CB90098012255
:1003F00040000023D0EB020263EBE073009821463B
:100400004FEAE074B8EB000061EB0401E9E783F028
:1004100000435BE781F0004158E72DE9FE4F81EA98
:10042000030404F0004421F0004100944FF0000B5D
:1004300023F0004350EA01045ED052EA03045BD08B
:10044000C3F30A54C1F30A552C44A4F2F3340194C3
:10045000A0FB0254C1F3130141F48011C3F3130351
:1004600043F4801301FB024400FB034E840A970A05
:1004700044EA815447EA8357A4FB076802958D0A32
:1004800005FB07854FEA932C04FB0C542705029DBE
:100490004FEA065847EA1637B5EB08056EEB070C2E
:1004A000870E920E47EA811742EA8312A7FB0201E8
:1004B000B6EB0B0164EB00042B0D43EA0C335E1822
:1004C00044EB1C50DA465146E7FB0201C5F3130426
:1004D0004FEA0B3343EA14534FEA0432019C43EAD8
:1004E0000603A4F10C040294009CCDE900B400F0D2
:1004F000D8F803B0BDE8F08F00200146F9E72DE9F8
:10050000F04D81EA030404F0004B21F0004514464D
:100510004FF0000A23F0004150EA050220D054EACF
:1005200001021DD0C5F30A570246C5F31303C1F3F8
:100530001300C1F30A5640F4801543F48013A7EB6F
:100540000608101BD64608F2FD3873EB050002D3EF
:1005500008F1010801E092185B41B8F1000F03DADD
:1005600000200146BDE8F08D00204FF480110646C2
:1005700084460EE0171B73EB050705D3121B63EBD4
:10058000050306434CEA010C49084FEA3000921873
:100590005B4150EA0107EDD152EA030012D082EA32
:1005A000040083EA0501084305D0101BAB4106D2C5
:1005B0000122002306E000224FF0004302E06FF02A
:1005C000010253101AEB06004CEB085110EB0A0025
:1005D00041EB0B01BDE8F04D00F054B8C1F30A52F5
:1005E000C1F3130140F2FF3341F480119A4202DA61
:1005F00000200146704740F233439A42A2F2334250
:1006000002DC5242FFF752BEFFF741BE30B5041E76
:1006100071F1000404DB4FF00044404264EB01013F
:10062000141E73F1000405DB1C464FF000435242D8
:1006300063EB0403994208BF904230BD064C074D5E
:1006400006E0E06840F0010394E8070098471034A2
:10065000AC42F6D3FFF7BAFD408A0308608A03086C
:10066000202A06DBCB17203A41FA02F043EAE07376
:1006700006E041FA02F3D040C2F120029140084363
:100680001946704710B5141E73F1000408DA401CB7
:1006900041F1000192185B411A4301D120F00100A1
:1006A00010BD2DE9F04D92469B4611B1B1FA81F291
:1006B00002E0B0FA80F220329046FFF7E8FD0446EF
:1006C0000F4640EA0A0041EA0B0153465A460843E6
:1006D00013D0114653EA010019D0C8F14002504628
:1006E000FFF7E4FD05460E46504659464246FFF7E1
:1006F000CEFD084305D0012004E020463946BDE880
:10070000F08D0020054346EAE0762C4337430A98F3
:100710006305E40AA0EB08000022FD0A44EA4754FE
:100720000A3002D500200146E9E7010510196941A8
:10073000DDE9084500196941BDE8F04DA2E770B553
:100740008C1810F8015B15F0070301D110F8013B7C
:100750002A1106D110F8012B03E010F8016B01F803
:10076000016B5B1EF9D12B0705D40023521E0DD45B
:1007700001F8013BFAE710F8013BCB1A921C03E0A9
:1007800013F8015B01F8015B521EF9D5A142D8D3E1
:10079000002070BD454910B54A6822F440324A60D5
:1007A0004A6843681A434A6001684A6822F48072C2
:1007B0004A6001684A68036942EA03224A600168A4
:1007C0004A6822F040724A6001684A6883681A43A6
:1007D0004A6001688A6822F400628A6001688A6857
:1007E000C3681A438A60816A6FF07062D1420168FF
:1007F0008A6822F070628A6001688A680CD0836A15
:100800001A438A6001688A6822F040528A6001684F
:100810008A68C36A1A4301E022F040528A60016884
:100820008A6822F002028A6001688A68836942EA63
:1008300043028A60016A002901684A680FD042F4C5
:1008400000624A6001684A6822F460424A600168B6
:100850004A68174C436A04EB43331A4301E022F41D
:1008600000624A600168CA6A22F47002CA620168C2
:10087000CA6A838B0F4C04EB03531A43CA620168A4
:100880008A6822F400728A6001688A68036B42EA0F
:1008900043228A6001688A6822F480628A60016863
:1008A0008A68406942EA8020886010BD00230140C8
:1008B00000E0FFFF0000F0FFFEE700002DE9F05F21
:1008C000DFF8748105464FF480563146404601F00A
:1008D00053F85A4C012748B9208838B92888401C59
:1008E00080B22880042800D12F802780B34631466B
:1008F000C146404601F040F80026012800D126807C
:10090000DFF83C810421404601F036F850B9608898
:1009100040B94C480188491C89B20180022900D1A4
:10092000068067800421404601F026F8012800D1A6
:100930006680DFF814810421404601F01DF818B1EB
:100940006089012807D00CE001222021484601F0EF
:1009500018F8678105E000222021484601F011F8CF
:1009600066814FF400494946404601F005F828B930
:10097000A08818B96888401C6880A780494640460E
:1009800000F0FAFF012800D1A68049462E4800F069
:10099000F3FF0028DFF8B4802D484FF4967941F238
:1009A000941A0ED001F021FFA8F104000660C8F8E7
:1009B00000A0DFF894805946404600F0DDFF78B192
:1009C00014E001F0F9FE224801F003FFA08901289C
:1009D000EFD1C8F800906888401C6880A681E8E7DD
:1009E000E08818B96888401E6880E7805946474605
:1009F000404600F0C1FF012800D1E6805946384644
:100A000000F0BAFF0028134F134806D001F0EDFEA6
:100A10007E62C7F828A0BDE8F09F01F0CDFE0E4829
:100A200001F0D7FEE0890128F5D1C7F82890688841
:100A3000401E6880E681EEE700080240800000204A
:100A4000000C02401800002000040240280800406A
:100A50002803002000100040640300202DE9F0412D
:100A6000104F04464FF400763146384600F084FFBC
:100A7000012508B9606858B13146384600F07CFF5E
:100A800001280BD02068022800D92560BDE8F0813C
:100A90002068401CC4E900050120F7E700206060E1
:100AA000F4E70000000802402DE9F05FA74C0820A1
:100AB000012660811920A081A548E6814088208216
:100AC00004F088FA7102A34800F056FF20B966804E
:100AD000268000F05BFF6063DFF87CA24FF4805952
:100AE0004946504600F048FF9C4FDFF874B2062597
:100AF0004FF00708012832D13E801FE14946504699
:100B000000F03AFF012801D13E80258004F062FA0E
:100B100094480088012800D12580208808281ED20A
:100B2000DFE800F01D04063A871DF2EE02202EE0F9
:100B300000F02CFF616B411A608900EBC00202EBF0
:100B40000010B1EB800F4FF0000209D22021814844
:100B500000F017FF012211027E4800F012FFEEE0C4
:100B60004FF480717B4800F00CFF0122202179486E
:100B700000F007FF01220821504600F002FF00F0BC
:100B800021FBA1893BF811007749088003202080D0
:100B900000F0FCFE6063D2E0A0893BF810207248B0
:100BA00002800022E263714800F094FC7048D0F8A3
:100BB0003C0240F67461A063884202D9E06B401C9D
:100BC000E063A1893BF81100674908804946504617
:100BD00000F0D2FE012801D13E8025804FF4007143
:100BE0005C4800F0C9FE012800D1258000F0CEFE4F
:100BF000616B411A40F6B830814201D9A4F80080F7
:100C00005C48E16B814202D30422228004E0228806
:100C1000072A03D0062A01D08142C4D3002208212A
:100C2000504600F0AEFE00F0B1FE6063A089208166
:100C300085E0208AA189884203D900BFA0EB010288
:100C4000226302D2A1EB00002063E0894FF47A71A5
:100C500000FB01F0216B90FBF1F04FF00A0190FBDB
:100C6000F1F0E08000F092FE616B401AE18888426A
:100C700012D900F08BFE6063208AA189884203D9D3
:100C8000228902F10102228103D22289A2F101020A
:100C90002281814200D120812189208A814203D38F
:100CA000208100F073FE606321893BF811002E491A
:100CB00008802E4800F00EFC2D48D0F83C0240F68B
:100CC0001C41A063884219D2A06A10B900F05EFEF0
:100CD000A06200F05BFEA16A401AB0F5FA6F05D978
:100CE00021B1A4F8008000F051FE60634FF4007160
:100CF000184800F041FE012821D103E00020E7E779
:100D000013E001E0258043E700F04EFA0020608008
:100D10000220208000F03AFE606300F037FE1649A2
:100D200008600B4800F028FA09E000F03DFA4FF4A3
:100D30000071084800F020FE012800D1258060885D
:100D400001283FF4DBAEBDE8F09F0000C8010020A1
:100D500010000020000802400000024004000020B3
:100D6000CC000020020000201A00002050020020C9
:100D700000200140803801000C0000202DE9F05FC8
:100D8000AB4C0820012660811420A081A948E6818F
:100D90004088208204F01EF9A748FFF75FFEDFF8C5
:100DA00098823503A54FD8F80000012809D12946BB
:100DB000384600F0E1FD20B96680268000F0E6FDAF
:100DC0006063AB462946BA46384600F0D5FD9C4FD5
:100DD00006254FF00709012835D13E8021E19648CC
:100DE000FFF73CFE5946504600F0C6FD012801D1F0
:100DF0003E80258004F0EEF892480088012800D15A
:100E00002580208808281ED2DFE800F01D04063C5B
:100E10008B1DF4EE02202FE000F0B8FD616B411A4B
:100E2000608900EBC00202EB0010B1EB800F4FF0C5
:100E3000000209D22021844800F0A3FD0122110202
:100E4000814800F09EFDEDE04FF480717E4800F097
:100E500098FD012220217C4800F093FD0122082109
:100E6000504600F08EFD00F0ADF97848A18930F8C9
:100E70001100774908800320A4F8000000F086FDE7
:100E80006063CFE0714AA08932F810107048018089
:100E90000021E1636848FFF7E1FD6E4800F01AFBAE
:100EA0006D48D0F83C0240F67461A063884202D9D4
:100EB000E06B401CE0636548A18930F8110064498B
:100EC00008805946504600F057FD012801D13E8068
:100ED0002580D8F80000022800D1258000F056FDBA
:100EE000616B411A40F6B830814201D9A4F80090F4
:100EF0005A48E16B814202D30422228004E0228816
:100F0000072A03D0062A01D08142C3D30022082138
:100F1000504600F036FD00F039FD6063A089208165
:100F200080E0208AA189884203D900BFA0EB01029A
:100F3000226302D2A1EB00002063E0894FF47A71B2
:100F400000FB01F0216B90FBF1F04FF00A0190FBE8
:100F5000F1F0E08000F01AFD616B401AE1888842F0
:100F600012D900F013FD6063208AA189884203D959
:100F7000228902F10102228103D22289A2F1010217
:100F80002281814200D120812189208A814203D39C
:100F9000208100F0FBFC60632C48218930F81100AF
:100FA0002B4908802B4800F095FA2B48D0F83C02DA
:100FB00040F61C41A063884218D2A06A10B900F024
:100FC000E5FCA06200F0E2FCA16A401AB0F5FA6FFD
:100FD00005D921B1A4F8009000F0D8FC6063D8F8DE
:100FE000000002281ED103E015E003E00020E8E73E
:100FF000258043E700F0D8F80020608002202080A0
:1010000000F0C4FC606300F0C1FC154908600948A9
:1010100000F0B2F806E000F0C7F8D8F800000228A7
:1010200000D12580608801283FF4D9AEBDE8F09F4B
:10103000C8010020100000201C0000200000024019
:10104000040000200200002000080240CC00002024
:101050001A000020500200200020014080380100CA
:101060000C0000202DE9FC5F344835494926036A0D
:101070000A884425432754244FF0470A4FF0520969
:101080004FF05508934229D003214FF0040B3AB397
:10109000012202624FF4FC65CDE90015202358229D
:1010A0000521DC2002F092FCCDE9005B5E460023C6
:1010B0003A460B21F02002F017F8CDE90056002344
:1010C00042460B21FF2002F00FF8CDE90056002325
:1010D00022460B214FF4887002F006F8BDE8FC9F11
:1010E000002202621F24CDE900142023582205218A
:1010F000DC2002F06BFCCDE9004B5F46002352463A
:101100000B21E92001F0F0FFCDE9004700234A461A
:101110000B21F82001F0E8FFCDE90047002332461B
:101120000B2140F2071001F0DFFFCDE9004700235B
:101130002A460B2140F21710CEE70000A80000203D
:101140001800002070470000FEB56424074E084FC9
:1011500006250096CDE901540A233A89A0210548C5
:1011600000F09EFC0028F4D1FEBD0000100000201D
:101170008000002098020020FEB56424074E084F2E
:1011800006250096CDE901540A233A89A021054895
:1011900000F084FD0028F4D1FEBD00001000002006
:1011A000800000209802002010B50C21044801F0B6
:1011B00083FDBDE810400021014801F061BA000044
:1011C000EC0200200C4910B56420088000210B4877
:1011D00001F026FA01204FF4FA61401C8842FCD944
:1011E0000C21064801F032FD02204FF47A61401CC8
:1011F0008842FCD910BD00001A000020EC0200203B
:1012000030B50D4B00200D4913F1060233F81040A4
:1012100031F81050A54201D921F8104031F8105092
:1012200032F81040A54201D221F81040401C80B293
:101230000228EBD930BD00009000002010000020F3
:101240002DE9F04186B00546012801D0002D55D189
:101250002C490024086840F001000860086800F08C
:1012600001000590086840F002000860086800F07E
:1012700002000590086840F0040008600868224EEB
:1012800000F0040005904FF4E0600090CDE90154B7
:1012900069463046039400F09DFA4FF48760009051
:1012A000CDE90154DFF8648069464046039400F0BC
:1012B00091FA80200090CDE90154154F69463846D7
:1012C000039400F087FA132000900125CDE9015422
:1012D00069463046039400F07DFA0095CDE901544B
:1012E00069464046039400F075FA02200090CDE96B
:1012F000015469463846039400F06CFA06B0BDE824
:10130000F08100003038024000000240000402403A
:101310000008024070B590F83C206A4D012A19D0AF
:10132000012280F83C200A6807230468092A13D99F
:10133000E6680A3A02EB420293409E43E6600A786E
:101340008B680A3A02EB420293400268D468234356
:10135000D36010E0022070BD266902EB4202934088
:101360009E4326610B788A6803EB43039A40036827
:101370001C6922431A610268936B23F44013936340
:101380000268936B0C8A504E06EB0454234393631C
:101390000A790B7CD21AD21C02EB82021F239340E3
:1013A0000268946B9C4394630A790B7CD21AD21C1A
:1013B00002EB82030A8892B29A4003689C6B224334
:1013C0009A63CA69AA420268936823F470239360FF
:1013D000026893680CD0CC692343936002689368D9
:1013E00023F440139360026893680C6A234301E07E
:1013F00023F4401393608A69002A0268536802D07C
:1014000043F4806301E023F4806353604A69002A57
:101410000268536802D043F4805301E023F4805300
:1014200053604A68012A16D0022A1FD0032A026894
:1014300027D0136A6FF30B0313620268136ACC6838
:1014400023431362224B0468204A9C4227D10C6834
:10145000122C20D023E0026853696FF30B03536111
:1014600002685369CC6823435361EBE702689369D0
:101470006FF30B03936102689369CC682343936114
:10148000E0E7D3696FF30B03D3610268D369CC68DB
:101490002343D361D6E7546844F48004546004685D
:1014A0009C420AD10968A1F18053123B01D0112955
:1014B00003D1516841F400015160002180F83C10D3
:1014C000084670BD01000F000000F0FF002301403E
:1014D0000020014018B50022009290F83C1001292C
:1014E00007D0012180F83C1001688B68DB0702D02F
:1014F00011E0022018BD8B6843F001038B60224984
:10150000224B0968B1FBF3F101EB410100E0491EF8
:1015100000910029FBD101688B68DB0726D0036CA2
:1015200042F20104A34343F480530364036CDB05DC
:1015300000D4426480F83C206FF004020A60144931
:1015400049680068C906816801F4401110D0C1B132
:10155000002241680F4B41F38021491C984205D17C
:1015600022B119B1816841F480018160002018BD69
:1015700029B10022416841F38021491CF0E7012292
:10158000F8E70122E5E700003000002040420F00AC
:10159000002301400020014078B50024009490F819
:1015A0003C20012A19D0012280F83C200A68072338
:1015B0000568092A13D9EE680A3A02EB4202934001
:1015C0009E43EE600A788B680A3A02EB420293402F
:1015D0000268D5682B43D36010E0022078BD2E69E5
:1015E00002EB420293409E432E610A788B6802EB25
:1015F00042029340026815692B4313614A681F2316
:10160000072A13D205686E6B521E02EB82029340CA
:101610009E436E630B790A885B1E92B203EB8303D1
:101620009A4003685D6B2A435A6327E005680D2AD8
:1016300012D22E6BD21F02EB820293409E432E6386
:101640000B790A88DB1F92B203EB83039A4003688D
:101650001D6B2A431A6311E0EE6A0D3A02EB820217
:1016600093409E43EE620B790A880D3B92B203EBE6
:1016700083039A400368DD6A2A43DA62174B0568E0
:10168000154A9D4206D10D68122D03D1556845F4C7
:101690008005556005689D4219D1114D0B68AB421C
:1016A00001D0112B13D1536843F400035360096830
:1016B000A9420CD10B490C4A0968B1FBF2F101EBCC
:1016C0008101490000E0491E00910029FBD180F80A
:1016D0003C40002078BD0000002301400020014074
:1016E000120000103000002040420F0070B50400CE
:1016F0004FF0000503D0206C002610B107E0012058
:1017000070BD666484F83C60204600F019F8206CD7
:10171000C00610D4206C20F4885040F002002064F1
:101720002046FFF737F86664206C20F0020040F096
:101730000100206400E0012584F83C60284670BD6B
:1017400010B5164C036800211548032286B0A34249
:101750000ED1036843F480730360006800F4807066
:10176000059020200090CDE9012169460D4810E048
:101770000D4CA3420FD1036843F4806303600068FB
:1017800000F4806005900C200090CDE901216946AD
:10179000064800F01FF806B010BD00000020014010
:1017A000443802400000024000220140000802408C
:1017B00070B5044600F0EAF80546601C02D0044803
:1017C0000078044400F0E2F8401BA042FAD370BD58
:1017D000240000202DE9F84FDFF874B100224FF00B
:1017E00001084FF0030A4FF00F090BF1040E00BF80
:1017F0000B6808FA02F42340A3426ED14D68022D13
:1018000001D0122D0ED1D50800EB850CDCF820504C
:101810005607F70E09FA07F6B5430E69BE402E4388
:10182000CCF82060066855000F790AFA05FC07F02D
:10183000030726EA0C06AF40374307604E68012EC7
:1018400005D0022E03D0112E01D0122E0ED18668A3
:10185000CF6826EA0C06AF40374387604668A64348
:101860000C79C4F30014944034434460C4688E6817
:1018700024EA0C04AE402643C6604C68E40060D500
:10188000344C256845F480452560246822F0030522
:1018900004F480440094304C2E19D6F8084895077B
:1018A0002F0F09FA07F5AC432C4DA84201D10025B2
:1018B0001FE02B4DA84201D101251AE0294DA84275
:1018C00001D1022515E0284DA84201D1032510E0E1
:1018D000264DA84202D104250BE032E0244DA84257
:1018E00001D1052505E0234DA84201D1062500E0E0
:1018F0000725BD402543C6F80858DBF800405D4683
:101900004E689C43F60300D51C432C60DEF8004073
:1019100075464E689C43B60300D51C432C600C4DA5
:1019200008352C684E689C43F60200D51C432C6099
:10193000074D0C352C684E689C43B60200D51C43FD
:101940002C60521C102AFFF453AFBDE8F88F000042
:10195000003C014044380240003001400000024099
:101960000004024000080240000C02400010024047
:1019700000140240001802400069084000D0012015
:1019800070470AB1816170470904FBE7014880682C
:10199000704700002400002070B5040004D094F8C3
:1019A0003D00002510B106E0012070BD84F83C50D8
:1019B000204600F011FA242084F83D0020680168D8
:1019C00021F00101016000F0C5FB33492268B0FB42
:1019D000F1F15160314A6368934206D94FF496732E
:1019E00059434FF47A73B1FBF3F12368491C196230
:1019F000616891420BD84900B0FBF1F2C2F30B02CF
:101A0000042A01D2042019E0B0FBF1F016E0A3682B
:101A10009BB301EBC10202EB0112B0FBF2F242F404
:101A20008042120530D04BB301EBC10202EB011131
:101A3000B0FBF1F040F4804040F400402168C86100
:101A4000D4E90701084321680860D4E9031008437A
:101A500021688860D4E9050108432168C8602068CE
:101A6000016841F0010101602564202084F83D00F7
:101A7000256384F83E50002070BD00E006E001EBD5
:101A80004102B0FBF2F2CCE70120D7E701EB4101C4
:101A9000B0FBF1F0D0E7000040420F00A08601004B
:101AA0002DE9FF4F83B09A46DDE91187934604463E
:101AB000DDF84090FFF76AFF054694F83D002028C6
:101AC00074D11923012272492046009501F03FFA92
:101AD0000028F5D194F83C00012867D0012084F853
:101AE0003C0020680168C90703D1016841F0010189
:101AF00001602068016821F400610160222084F8FF
:101B00003D00402084F83E0000262664C4F824905E
:101B1000A4F82A805F48E062608D2085CDE90075D9
:101B200053465A462046049901F021F928B1206C09
:101B300084F83C60042843D076E0208DC8B10128A9
:101B400020D00228206823D0416980690090208D30
:101B500003286BD801282AD04F4902283B464FF072
:101B6000000200955BD08846204601F0F0F9E8BB02
:101B700040E02068416981690091016841F4007189
:101B8000016076E02068016821F480610160F0E77F
:101B9000016821F4806101602068016841F40061FE
:101BA0000160206841698069009062E06EE02A4629
:101BB0003946204601F040FA30B1206C202833D05D
:101BC000012007B0BDE8F08F206847E02068016879
:101BD00041F40071016020680169606A421C626220
:101BE0000170208D401E2085608D00E01CE0401EAD
:101BF0006085E9E72068016821F480610160206860
:101C00000169606A421C62620170208D401E20855D
:101C1000608D401E60853B4600224146009520466F
:101C200001F095F90028D1D00320CAE72A463946A9
:101C3000204601F001FA0028BFD120680169606ADE
:101C4000421C62620170208D401E2085608D401E06
:101C5000608520684169C94349070AD40169606AFF
:101C6000421C62620170208D401E2085608D401EE6
:101C70006085208D00287FF46AAF202084F83D0025
:101C800084F83E6084F83C6000209AE7022098E7E0
:101C9000020010000000FFFF040001002DE9FF4FCB
:101CA00083B09A46DDE9118793460446DDF84090FB
:101CB000FFF76CFE064694F83D0020287DD11923DD
:101CC000012243492046009601F041F900287CD1C9
:101CD00094F83C00012878D0012084F83C0020686A
:101CE0000168C90703D1016841F001010160206862
:101CF000016821F400610160212084F83D0040204A
:101D000084F83E0000252564C4F82490A4F82A80B5
:101D10003048E062608D2085CDE9007653465A4612
:101D20002046049901F09CF880B3206C84F83C5064
:101D3000042848D008E032463946204601F0ADF983
:101D400030B1206C042839D0032007B0BDE8F08FF3
:101D5000606A411C6162216800780861208D401E24
:101D600080B22085618D491E618521684A69D24310
:101D700052070BD468B1606A421C62620078086145
:101D8000208D401E2085608D401E6085208D00289E
:101D9000D1D132463946204601F0B2F80028D0D1E0
:101DA00054F83D0B016841F400710160202004F8F3
:101DB0001E09E57765770020C7E706E0206801681F
:101DC00041F4007101600120BFE70220BDE700007F
:101DD000020010000000FFFF00B500680E4987B048
:101DE000884216D1C020009012200190012002905C
:101DF000032003900420049069460848FFF7EAFC9A
:101E00000748016841F400110160006800F4001007
:101E1000059007B000BD00000054004000040240DF
:101E2000403802400248816802781144816070475E
:101E3000240000200B4810B5016841F400710160D6
:101E4000016841F480610160016841F480710160C2
:101E5000032000F097F8002000F006F800F024F8C6
:101E6000002010BD003C024070B50D4D04464FF4FB
:101E70007A712878B1FBF0F00A490968B1FBF0F0FB
:101E800000F05FFB48B9102C07D200222146501EFB
:101E900000F058F800206C6070BD012070BD00009B
:101EA00024000020300000201F4808B5016841F4DC
:101EB00080410160006800F4804000901A48001FD3
:101EC000016841F080510160006800F0805000908E
:101ED000032000F057F8002211466FF00B0000F0CD
:101EE00031F8002211466FF00A0000F02BF80022B2
:101EF00011466FF0090000F025F800221146501F2E
:101F000000F020F800221146101F00F01BF80022FC
:101F10001146901E00F016F80022BDE80840114658
:101F2000501E00F00FB800004438024000F01F02BD
:101F3000012191404009800000F1E020C0F800112B
:101F400070470000F0B40E4B1B680C46C3F302232D
:101F5000C3F10705042D00D90425191D072901D255
:101F6000002300E0DB1E012606FA05F1491E214090
:101F700099409E40761E16403143F0BC02F080BB73
:101F80000CED00E0064900F0070208684FF6FF0379
:101F9000184040EA0220034A1043086070470000DE
:101FA0000CED00E00000FA052DE9F8431748016840
:101FB00041F0805101600068154F00F0805001260B
:101FC00000903E64FFF7E2FC05464FF47A78114C2E
:101FD00005E000BFFFF7DAFC401B40450DD8606804
:101FE000C003F7D57E64FFF7D1FC0546464607E0FF
:101FF000FFF7CCFC401BB04202D90320BDE8F883B8
:1020000060688003F4D50020F8E700004038024003
:1020100000000E42007000402DE9F0470E4605001A
:1020200065D0DFF81481D8F80000F7B200F00F0097
:10203000B04207D288F80070D8F8000000F00F0016
:10204000B04254D128683D4C810712D5400703D5D2
:10205000206840F4E05020602878000703D520680D
:1020600040F4604020602068A96820F0F000084338
:1020700020602878C0072DD03049686808390128C9
:1020800012D0022813D0032811D00968890700292B
:102090002DDA216821F0030101432160FFF776FC6E
:1020A000814641F2883A0EE009688903EFE7096842
:1020B0008901ECE7FFF76AFCA0EB0901514502D961
:1020C0000320BDE8F0872068696800F00C00B0EBE1
:1020D000810FEFD1D8F80010404601F00F01B14256
:1020E00007D90770006800F00F00B04201D001204E
:1020F000E7E72878400705D52068E96820F4E05034
:10210000084320602878000706D52068296920F454
:10211000604040EAC100206000F02CF82168084AC5
:10212000C1F30311515CC840064908600020FFF765
:102130009BFE0020C5E70000003C0240083802403A
:10214000445B000830000020014800687047000030
:10215000300000200448054900680968044AC1F3BA
:102160008221515CC840704730000020083802408E
:10217000545B0008194810B5006810F00C011848AD
:1021800018D0042916D0154C241F082913D00C2967
:1021900010D1216801F03F02216821680023C1F3BA
:1021A0008811A1FB0001FEF72BF82168C1F3027131
:1021B000B0FBF1F010BD216801F03F0221682168F9
:1021C0000023C1F38811A1FB0001FEF719F8216873
:1021D000C1F30141491C4900EAE700000838024008
:1021E0000024F4002DE9F84F0546DFF828B3007805
:1021F000ABF10407C007A7F1040451D0DBF80010CD
:102200005846C1F3810101290FD00168C1F3810152
:10221000022902D13968490207D40068C0F381005D
:10222000032809D13868400206D52068800337D5D5
:102230006868002872D033E06868B0F5803F10D03D
:10224000B0F5A02F206810D020F4803020602068E6
:1022500020F4802020606868A8B1FFF797FB06464D
:102260000DE0206840F48030F4E740F480202060E6
:10227000F7E700BFFFF78AFB801B642878D8206847
:102280008003F7D50CE0FFF781FB064605E000BFB1
:10229000FFF77CFB801B6428F0D820688003F7D40C
:1022A0002878DFF8749280074FF0000A46D5DBF8F3
:1022B0000010584611F00C0F0FD00168C1F38101D6
:1022C000022902D13968490207D50068C0F38100AC
:1022D000032809D13868400206D42068800715D544
:1022E000E86801281AD111E0E868C0B10120C9F8F6
:1022F0000000FFF74BFB064605E000BFFFF746FB7B
:10230000801B0228BAD820688007F7D52068296981
:1023100020F0F80040EAC10020600FE0F7E0C9F8C3
:1023200000A0FFF733FB064605E000BFFFF72EFBDA
:10233000801B02281CD820688007F7D42878000763
:1023400027D5DFF8D0817548696908F16C0881B13B
:1023500001210160FFF71AFB064604E0FFF716FBB8
:10236000801B022804D8D8F800008007F6D510E0BA
:1023700089E0C0F800A0FFF709FB064605E000BFB2
:10238000FFF704FB801B02287DD8D8F800008007E7
:10239000F6D42878400769D55E484FF000083830F9
:1023A0000068C0000BD45B483830016841F08051B0
:1023B000016000684FF0010800F080500090584E16
:1023C0003068C00511D4306840F480703060FFF789
:1023D000DDFA009006E000BFFFF7D8FA0099401A36
:1023E000022850D83068C005F6D54A4EA86868362D
:1023F00001280FD00528306810D020F0010030608F
:10240000306820F004003060A868B8B1FFF7BEFA69
:1024100000900FE0306840F00100F4E740F0040065
:102420003060F7E7FFF7B2FA0099411A41F28830BD
:10243000814264D830688007F4D50EE0FFF7A6FA31
:10244000009007E0FFF7A2FA0099411A41F28830A4
:10245000814254D830688007F4D4B8F1000F05D019
:102460002C483830016821F080510160A869A8B378
:10247000DBF80010C1F38101022948D00228C9F815
:1024800060A005D000E03AE0FFF780FA054639E0A9
:10249000FFF77CFA064604E0FFF778FA801B022873
:1024A0002DD820688001F7D4F5E907010843E968D1
:1024B0001C4A490802EB0141AA6841EA821108431B
:1024C000297C40EA0160297D40EA017038600120E2
:1024D000C9F86000FFF75AFA054606E015E000BFAC
:1024E000FFF754FA401B022809D820688001F7D56D
:1024F0000BE000BFFFF74AFA401B022802D9032075
:10250000BDE8F88F20688001F4D40020F8E70120AE
:10251000F6E700000838024000004742800E4742BC
:10252000007000400000FFFF4FF0E0210428086920
:1025300003D020F004000861704740F00400FAE77F
:10254000704710B5401EB0F1807F01D3012010BD4F
:102550004FF0E02460610F21601702F091F8002035
:10256000A06107202061002010BD10B5FFF7E8FF33
:1025700010BD7047704710B590F83820012A25D05B
:10258000012280F83820CA688C6822F44072224305
:102590004C6822F4806222430C6822F400622243D9
:1025A0000C6922F4805222434C6922F400522243E7
:1025B0008C6922F48042224322F400410268002305
:1025C0002143516480F83830002010BD022010BD36
:1025D00030B590F83820012A20D0012280F8382028
:1025E000022380F8393003685C6824F070045C6072
:1025F00003685C680D682C435C6003689C6824F089
:1026000080049C6003689C6849680C439C6080F867
:102610003920002180F83810084630BD022030BD36
:1026200010B50268044631B1042908D008291FD02A
:102630000C2908D120E0D06840F0020002E0D06808
:1026400040F00400D0602068C26842F08002C2609E
:102650000422206802F089FB2068416C41F40041AB
:1026600041642068016841F001010160002010BD53
:10267000D06840F00800E5E7D06840F01000E1E7DE
:1026800010B50268044631B1042908D0082932D0B7
:102690000C2908D133E0D06820F0020002E0D068B5
:1026A00020F00400D0600022206802F05EFB206869
:1026B000026A40F244410A4203D1C26822F0800219
:1026C000C2602068036A41F21112134206D1036A04
:1026D0000B4203D1436C23F4004343642068036A34
:1026E000134206D1026A0A4203D1016821F00101B6
:1026F0000160002010BDD06820F00800D2E7D0684B
:1027000020F01000CEE710B5040003D094F8390093
:1027100010B107E0012010BD002084F838002046E9
:1027200000F00CF8022084F83900211D206802F026
:10273000B1FA012084F83900002010BD08B51A4A0A
:1027400001681A4891420ED1016841F0040101600C
:102750000068002200F00400009011461E20FFF7E0
:10276000F1FB1E2010E0124A914211D1016841F0A4
:10277000100101600068002200F010000090114676
:102780003620FFF7DFFB3620BDE80840FFF7CEBB61
:10279000084A914207D1016841F080010160006858
:1027A00000F08000009008BD000800404038024062
:1027B00000100040001C0040022180F83910016820
:1027C0000A6842F001020A60012180F839100020F5
:1027D00070470168CA6842F00102CA600068016877
:1027E00041F00101016000207047022180F839109A
:1027F00001680A6A41F211131A4207D10A6A9B1052
:102800001A4203D10A6822F001020A60012180F80D
:1028100039100020704770B5044690F83800012840
:1028200017D0012584F83850022084F83900206838
:10283000826822F0770222F47F4282600868502882
:1028400037D00DDC202859D005DC88B3102841D1C1
:1028500051E0022070BD302853D040283AD13FE0EB
:1028600060282ED070280BD0B0F5805F03D0B0F573
:10287000005F2FD110E02068816821F0070115E08A
:10288000CB68D1E90121206802F07AFA21688868D2
:1028900040F0770088601DE0CB68D1E90121206815
:1028A00002F06EFA2068816841F48041816011E095
:1028B0001EE0CA684968206802F02AFB502120689F
:1028C00006E0CA684968206802F033FB602120688E
:1028D00002F060FA84F83950002084F8380070BDA6
:1028E000CA684968206802F013FB40212068EFE7BE
:1028F00000212068ECE710212068E9E7202120680A
:10290000E6E730212068E3E7704770B504460068C9
:1029100001694FF00005C943890715D4C168C9434F
:10292000890711D4E91E01610120207620688069A1
:102930008007204602D0FFF7E7FF04E000F0BEF872
:10294000204600F065F9257620680169C9434907EA
:1029500017D4C168C943490713D46FF0040101615A
:10296000022020762068806910F4407F204602D043
:10297000FFF7CAFF04E000F0A1F8204600F048F994
:10298000257620680169C943090716D4C168C9437F
:10299000090712D46FF00801016104202076206835
:1029A000C0698007204602D0FFF7AEFF04E000F0C8
:1029B00085F8204600F02CF9257620680169C94386
:1029C000C90617D4C168C943C90613D46FF01001F2
:1029D0000161082020762068C06910F4407F2046FD
:1029E00002D0FFF791FF04E000F068F8204600F005
:1029F0000FF9257620680169C943C90708D1C16864
:102A0000C943C90704D1891E0161204600F098F925
:102A100020680169C943090609D4C168C943090688
:102A200005D46FF0800101612046FFF7A2FD206808
:102A30000169C943490609D4C168C943490605D497
:102A40006FF040010161204600F07BF920680169C8
:102A5000C94389060BD4C168C943890607D46FF0FE
:102A6000200101612046BDE87040FFF783BD70BDC5
:102A700010B50F4C0268002102230E4886B0A24216
:102A800007D14FF408620092CDE901310391012191
:102A900008E0094CA24209D140220092CDE901315F
:102AA0000391092104916946FEF794FE06B010BD1A
:102AB0000000014000000240001C0040704770B55B
:102AC000044690F838000D4601280DD0012684F800
:102AD0003860022084F8390042B1042A18D0082A4C
:102AE0002AD00C2A4DD139E0022070BD206802F0B6
:102AF00059F92068816941F0080181612068816984
:102B000021F004018161206881692A69114311E083
:102B1000206802F073F92068816941F400618161E5
:102B20002068816921F480618161206881692A6956
:102B300041EA0221816124E0206802F091F92068D5
:102B4000C16941F00801C1612068C16921F0040137
:102B5000C1612068C1692A69114311E0206802F04F
:102B6000AFF92068C16941F40061C1612068C169A1
:102B700021F48061C1612068C1692A6941EA0221AA
:102B8000C16184F83960002084F8380070BD10B548
:102B9000040003D094F8390010B107E0012010BD03
:102BA000002084F83800204600F00CF8022084F859
:102BB0003900211D206802F06DF8012084F83900E9
:102BC000002010BD08B500680F4988421AD10F488F
:102BD000016841F0010101600068002200F001007D
:102BE000009011461A20FFF7ADF91A20FFF79EF961
:102BF000002211461B20FFF7A5F9BDE808401B2065
:102C0000FFF794B908BD00000000014044380240BD
:102C10007047000010B504460068012202F09AF8DF
:102C200008492068884202D00749884203D1416C94
:102C300041F4004141642068016841F001010160F4
:102C4000002010BD000001400004014010B50268E2
:102C5000044631B1042908D0082920D00C2908D114
:102C600021E0D06840F0020002E0D06840F00400AB
:102C7000D0600122206802F06DF80D49206888427A
:102C800002D00C49884203D1416C41F400414164B7
:102C90002068016841F001010160002010BDD0688A
:102CA00040F00800E4E7D06840F01000E0E70000E2
:102CB000000001400004014010B50268044631B133
:102CC000042908D008292FD00C2908D130E0D06879
:102CD00020F0020002E0D06820F00400D060002262
:102CE000206802F037F8144841F2111321689A1055
:102CF000814202D01148814209D1086A184206D1A6
:102D0000086A104203D1486C20F4004048642068EF
:102D1000016A194206D1016A114203D1016821F00A
:102D200001010160002010BDD06820F00800D5E747
:102D3000D06820F01000D1E70000014000040140FD
:102D400070477047FEE701684A69D24352050CD4C8
:102D50006FF480624A6104210164002140F8301F51
:102D600020224273017301207047002070472DE933
:102D7000F84F0446006889460B9D0168984617463F
:102D800041F4806101602068016841F48071016054
:102D900000954FF0011A0022514620460A9B00F090
:102DA000D6F8F0BB216809F0FE0008610AF1010BBA
:102DB0002B46594620460A9A00F0FAF818B1206CC2
:102DC000042812D03AE020684169806900902A46C0
:102DD00020460A9900F061F950B1206C04282DD1E9
:102DE0002068016841F4007101600120BDE8F88F9E
:102DF000FEB2B8F1010F09D02168380A08612A46ED
:102E000020460A9900F049F90028E6D120680661B9
:102E10002A4620460A9900F040F90028DDD12068B2
:102E200000E00BE0016841F4807101600095002230
:102E3000514620460A9B00F08AF808B10320D5E7E6
:102E4000216809F0FF0040F0010008612B46594657
:102E500020460A9A00F0ACF80028B0D1C6E700007E
:102E60002DE9F843044600680D46DDE9089701683E
:102E70009846164641F4807101604B4600224FF09F
:102E800001112046009700F062F8E8B9216805F0CA
:102E9000FE0008613B464A461849204600F088F883
:102EA00028B1206C04280FD10120BDE8F8832068E8
:102EB0004169806900903A464946204600F0EDF8A5
:102EC00020B1206C042813D00320EEE7F5B2B8F14E
:102ED000010F09D02168300A08613A464946204668
:102EE00000F0DBF80028ECD1206805610020DCE769
:102EF0002068016841F400710160D5E7020001001B
:102F000070B516460D4604461AE02046FFF71BFF33
:102F100008B1012070BD681C12D025B1FEF736FD46
:102F2000801BA8420CD954F8400F40F0200044F810
:102F3000100900202060202161732073032070BDE0
:102F400020684069C0434007DFD4002070BD2DE9F0
:102F5000F0471E4690460D460446C1F30747DDF88C
:102F6000209012E0701C10D02EB1FEF70FFDA0EBE8
:102F70000900B04209D9002044F8300F20216173C4
:102F8000A07320730320BDE8F0872068012F0AD0CA
:102F9000806925EA00000004000C06D000214145AC
:102FA000E0D00020EFE74069F3E70121F7E70000F8
:102FB0002DE9F0479A4691460D46044600264FF00B
:102FC0002008C1F307472AE020684069C043400554
:102FD00012D42068016841F40071016021686FF427
:102FE0008060486104202064266384F83D8084F872
:102FF0003C600120BDE8F087B9F1FF3F0FD0B9F187
:10300000000F05D0FEF7C2FCA0EB0A01494506D926
:1030100044F8306F84F80D8026730320EAE72068B7
:10302000012F07D0D0F8180025EA00000004000C9A
:10303000E0D0C9E74069F7E72DE9F0410025904667
:103040000E460446202721E04069C043C0060CD448
:1030500021686FF0100048612564256384F83D7095
:1030600084F83C500120BDE8F0812EB1FEF78EFCC3
:10307000A0EB0800B04209D954F8400F40F02000FE
:1030800044F80409677025700320ECE72068416963
:10309000C9434906D8D40020E5E770B516460D4669
:1030A00004461AE02046FFF74EFE08B1012070BD2D
:1030B000681C12D025B1FEF769FC801BA8420CD910
:1030C00054F8400F40F0200044F810090020206020
:1030D000202161732073032070BD20684069C043C4
:1030E0000006DFD4002070BD2DE9FF4F83B08A4673
:1030F00081463B48119950F82100C588848838489A
:103100001038B0F90430994567DAB0F90600824505
:1031100063DA09EB040001285FD40AEB05000128FB
:103120005BD4E01D4FEAD008202A00D22022203AAA
:103130006A43C4EBC80002FB08F2C0B2CDE900024A
:10314000002648E026491198B8F1050F51F82000F3
:103150000168019808FB061108441CD2DFE808F05A
:103160001B0305091000007801E0008840BA83467F
:103170000FE001784278090441EA0221807806E0F4
:103180000188827849BA0904C07841EA022141EAFB
:10319000000B002718E001780A04417842EA012177
:1031A000ECE70098E11B01440120491E884010EA29
:1031B0000B0F09EB070000B201D0069A00E0109A4D
:1031C000514600F027FB7F1CA742EAD30AF1010019
:1031D0000FFA80FA761CAE42B4D307B0BDE8F08F88
:1031E0006C0000202DE9FF4F83B08946834640489C
:1031F000119950F82100C68884883D481038B0F9EC
:1032000004309B4571DAB0F9060081456DDA0BEBAD
:103210000400012869D409EB0600012865D4E01DEB
:103220004FEAD008202A00D22022203A724308EB2D
:103230004800001B02FB08F2C0B2CDE900020025E5
:1032400051E02B491198B8F1060F51F820000168A0
:10325000019808FB0511084425D2DFE808F0240393
:103260000509101B007801E0008840BA82460FE093
:1032700001784278090441EA0221807806E0018859
:10328000827849BA0904C07841EA022141EA000A79
:10329000002721E0B0F80110C27849BA090441EAD8
:1032A00002210079F2E7418849BA0A04017940799C
:1032B00042EA0121EAE70099E01B01440120491E8E
:1032C000884010EA0A0F06D00BEB070000B249460F
:1032D000069A00F09FFA7F1CA742ECD309F1010087
:1032E0000FFA80F96D1CB542ABD307B0BDE8F08F83
:1032F0006C0000202DE9FF4F83B0894682463D488F
:10330000119950F82100C58884883A481038B0F9DE
:1033100004309A456BDAB0F90600814567DA0AEBAA
:103320000400012863D409EB050001285FD4E01DE7
:103330004FEAD008202A00D22022203A6A4308EB24
:103340004800001B02FB08F2C0B2CDE900020026D3
:103350004BE028481199B8F1010F50F8210001689D
:10336000019808FB0611084441460ED002290ED0F0
:10337000032910D0B8F1040F14D0C188027A49BAD9
:10338000090441EA0221407A13E0007801E0008854
:1033900040BA83460FE001784278090441EA0221ED
:1033A000807806E00188827849BA0904C07841EA49
:1033B000022141EA000B002710E00098E11B0144C4
:1033C0000120491E884010EA0B0F06D00AEB0700C7
:1033D00000B24946069A00F01DFA7F1CA742ECD3C2
:1033E00009F101000FFA80F9761CAE42B1D307B0A3
:1033F000BDE8F08F6C0000202DE9FF4F83B08946B7
:1034000083463C48119950F82100C5888488394882
:103410001038B0F904309B4568DAB0F906008145F0
:1034200064DA0BEB0400012860D409EB05000128E5
:103430005CD4E01D4FEAD008202A00D22022203A96
:103440006A43C4EB880002FB08F2C0B2CDE9000277
:10345000002649E027481199B8F1050F50F82100DE
:103460000168019808FB061108441CD2DFE808F047
:103470001B0305091000007801E0008840BA82466D
:103480000FE001784278090441EA0221807806E0E1
:103490000188827849BA0904C07841EA022141EAE8
:1034A000000A002719E0B0F80110C27849BA0904EF
:1034B00041EA02210079F2E70098E11B0144012072
:1034C000491E884010EA0A0F06D00BEB070000B235
:1034D0004946069A00F09EF97F1CA742ECD309F1F9
:1034E00001000FFA80F9761CAE42B3D307B0BDE8F5
:1034F000F08F00006C0000202DE9FF4F83B089465B
:1035000082463D48119950F82100C58884883A4880
:103510001038B0F904309A456BDAB0F906008145ED
:1035200067DA0AEB0400012863D409EB05000128DF
:103530005FD4E01D4FEAD008202A00D22022203A92
:103540006A4308EB4800001B02FB08F2C0B2CDE959
:10355000000200264BE028481199B8F1010F50F8FD
:1035600021000168019808FB0611084441460ED06D
:1035700002290ED0032910D0B8F1040F14D081888D
:10358000827949BA090441EA0221C07913E000783E
:1035900001E0008840BA83460FE0017842780904D0
:1035A00041EA0221807806E00188827849BA09045C
:1035B000C07841EA022141EA000B002710E00098A0
:1035C000E11B01440120491E884010EA0B0F06D080
:1035D0000AEB070000B24946069A00F01BF97F1C6F
:1035E000A742ECD309F101000FFA80F9761CAE4234
:1035F000B1D307B0BDE8F08F6C0000202DE9FF4F7C
:103600000746C2F1010014460FFA80F8C2EBC4303D
:1036100040000FFA80FA83B00E46081901B24FF04D
:10362000010900253846069A00F0F4F8301B01B273
:103630003846069A00F0EEF8381900B23146069A7C
:1036400000F0E8F8381B00B23146069A4DE000BFA2
:10365000B8F1000F09DB0AF102000FFA80FA641ECC
:1036600008EB0A0024B20FFA80F809F102000FFA01
:1036700080F908EB09000FFA80F830196D1C01B2CF
:103680002DB2781900B201908B46069A00F0C2F86C
:10369000781B594600B28346069A00F0BBF8301BEF
:1036A00001B20091069A019800F0B4F85846069AC3
:1036B000009900F0AFF8701901B2381900B28346D2
:1036C0000091069A00F0A6F8381B00B2019000990C
:1036D000069A00F09FF8701B01B258460091069AB6
:1036E00000F098F8DDE90010069A00F093F8A54282
:1036F000AEDB07B0BDE8F08F2DE9F041141E1E4689
:10370000024632DD002A30DB194DB5F90400824251
:103710002BDAB5F90630994227DA0819401E00B2B3
:10372000002822DB002902DA21440CB20021984251
:1037300004DB5B1E18B2431A5B1C1CB283B297B247
:1037400090B289B23A4600F0CBFA2146304600F0FA
:1037500085F9E888401E83B2A888BDE8F041401E84
:1037600082B20021084600F0BBBABDE8F08100003B
:103770005C0000202DE9F05F0C4606461546191B3B
:10378000A2EB060000D54942002800DA40428142FF
:1037900007DD304626461D464FF001080446134615
:1037A00001E04FF00008AE4205DD30462E460546EA
:1037B00020461C460346A81B0FFA80F9181B00D5AB
:1037C00040420FFA80FB09EBD97047109C4201DAA6
:1037D000012001E04FF0FF30824617E00A9AB8F16D
:1037E000000F02D03146204601E02146304600F06D
:1037F00011F8A7EB0B0007B2002F05DA04EB0A0063
:1038000004B207EB090007B2761C36B2AE42E5DD22
:10381000BDE8F09F70B5164600281DDB00291BDBB4
:103820000E4BB3F90420904216DAB3F906309942F0
:1038300012DA0B4C4FF4803525605B1E521E9BB292
:1038400092B289B280B200F04BFA256031462C204A
:1038500000F0A6FA0120206070BD00005C0000208E
:10386000180402402DE9FF5F8146C2F1010006B253
:10387000C2EBC2304000012788460FFA80FB0025CA
:103880001446DDF838A04AE0002E08DB0BF10200F8
:103890000FFA80FB641E06EB0B0024B206B2BF1CBD
:1038A0006D1C3FB2F01906B203982DB2C00719D0B3
:1038B0000AEB4400401C02B2A8EB040001B209EB81
:1038C000050000B20F9BFFF717FF0AEB4500401CF5
:1038D00002B2A8EB050001B209EB040000B20F9B95
:1038E000FFF70AFF0398800719D50AEB4400401C34
:1038F00002B2A8EB040001B2A9EB050000B20F9BD5
:10390000FFF7FAFE0AEB4500401C02B2A8EB0500E7
:1039100001B2A9EB040000B20F9BFFF7EDFEA54238
:10392000B2DBBDE8FF9F00002DE9F0411C46DDF849
:103930001880151E46DD002C44DD234EB6F904C068
:1039400060453FDAB6F90670B9423BDA4219521EB9
:1039500013B2002B36DB0A19521E12B2002A31DBD9
:10396000002802DA284405B20020002902DA2144A6
:103970000CB20021634506DBACF1010C0FFA8CF3AD
:103980001D1A6D1C2DB2BA4204DB7F1E3AB2541AC6
:10399000641C24B297B29AB289B280B23B4600F05E
:1039A0009FF915FB04F1404600F058F8F088401EDE
:1039B00083B2B088BDE8F041401E82B200210846C3
:1039C00000F08EB9BDE8F0815C0000202DE9FC5FBD
:1039D0008246DDE90C476542914602EB450002B2A2
:1039E0000AEB040006B298468B4630460097FFF774
:1039F0009BFF08EB4500401E0FFA80F80BEB04001C
:103A000001B20AEB0900001BCDE90087401E0D46FC
:103A100000B201232246FFF725FFCDE900872946A2
:103A2000304602232246FFF71DFFBDE8FC9F000041
:103A300010B509490446C888401E83B28888002111
:103A4000401E82B2084600F04BF92046BDE8104007
:103A50004FF4963100F002B85C0000202DE9F041EF
:103A6000194F0C464FF48031060AC5B23960014641
:103A70002C2000F095F9641EAE421FD1134D4FF477
:103A800000364FF00208641E1AD3AE61022001F026
:103A9000E1FFC5F81880022001F0DCFFAE610220D2
:103AA00001F0D8FFC5F81880022001F0D3FFEAE743
:103AB000304600F0A5F9284600F0A2F9641EF7D2BE
:103AC00001203860BDE8F081180402400000024087
:103AD0002DE9F05FDFF8CC80F0214FF6FF7BA8F8EE
:103AE00004104FF4A071A8F80610002188F8011006
:103AF000A8F80810A8F80A1088F80010A8F80EB066
:103B00004FF00109A8F80CB088F802904846FDF77C
:103B100097FB00F0A7F83220FDF74AFEDFF888A0F7
:103B20004FF48031CAF80010204D0024295D641C38
:103B3000E0B22F5C401CC4B2FF290AD01C4E4FF4E7
:103B40008010B061084600F05BF91020B0610026DB
:103B50000AE03846FDF72CFE08E0285D641CE4B25C
:103B600000F04EF9761CF6B2BE42F6D36C2CDDD3D3
:103B7000B8F80610B8F80400491E8BB2401E82B295
:103B80000021084600F0ACF8CAF800900020FFF7CA
:103B90004FFF002000F0FCF85846BDE8F05F002120
:103BA00000F0F0B85C00002018040240D38903083C
:103BB000000002400FB47FB509AA2848089901F017
:103BC000DDFA27480026A0F11004217850F82100E2
:103BD000C188ADF808108088ADF80C001F4D37E0A3
:103BE0000A2A27D00D2A2AD0092A2AD0B4F9060099
:103BF000BDF80810401AB4F90A10884200DC66814A
:103C00002178E089CDE90001A389B4F90A10B4F95B
:103C10000800FFF769FA2089BDF80C10084400B2CB
:103C20002081A17899B1B4F90410BDF80C20891A4B
:103C300081420CDA6089BDF8081008446081268151
:103C400005E02089BDF80C1000EB810020816D1C7F
:103C50002A78002AC4D17FBC5DF814FBDC03002065
:103C60006C0000202DE9F047DFF868A001255746D9
:103C7000CAF80050184C1020A0610226A661A56168
:103C8000DFF858804FF40039C8F800903046FDF74F
:103C90008FFDC8F800607820FDF78AFD28043860A1
:103CA0000001A061002000F0ABF8B04600274E46AE
:103CB000A661022001F0CEFEC4F81880022001F0B7
:103CC000C9FE7F1CFFB2032FF2D3CAF80050BDE833
:103CD000F08700001804024000000240180802406B
:103CE00070B5094C0E464FF480311D46216042EA02
:103CF00000412A2000F068F845EA06412B2000F038
:103D000063F80120206070BD18040240014A108150
:103D1000518170475C00002070B5184C00F0030022
:103D2000F02160704FF4A072012804D0032802D063
:103D3000A180E28001E0A280E180114D4FF480314A
:103D40002960012805D0022805D0032805D0482184
:103D500004E0282102E0882100E0E821362000F07C
:103D600093F8E0880021401E83B2A088401E82B2F2
:103D70000846FFF7B5FF0120286070BD5C000020F9
:103D800018040240014A9081D18170475C000020F4
:103D90000249052800D30420087070475C00002009
:103DA00070B5084D0C464FF48011A96100F028F859
:103DB0001020A861200A00F023F8E0B2BDE87040AE
:103DC00000F01EB80000024070B50C4D0C464FF4D8
:103DD0008011A96100F014F81020A861200E00F0F5
:103DE0000FF8C4F3074000F00BF8C4F3072000F00D
:103DF00007F8E0B2BDE8704000F002B800000240F1
:103E000010B51E4C61694FF6FF02114000F001022F
:103E100041EA422100F0040241EA022100F080025E
:103E200041EA42016161164A11684FF6C7331940F1
:103E300000F00803194300F0100341EA4301102386
:103E400003EA5003194300F0400341EA03111160F3
:103E50000C490A684FF67F731A4000F0020042EAEC
:103E6000801008604FF40030A061022001F0F2FDE4
:103E70000220A061BDE8104001F0ECBD000002404E
:103E8000140402401408024070B5074C0D464FF46C
:103E90008011A161FFF7B4FF1020A0612846BDE8A2
:103EA0007040FFF7ADBF00000000024070B5FFF7A3
:103EB0000FFE0120FFF730FF0020FFF7B9FDFDF7EF
:103EC00065FD044600211648FEF7A4FE154D4FF48B
:103ED0007A7028604FF42F7613E014216420FFF7E6
:103EE00015FF0120FFF754FF0FA0FFF763FE5A21D3
:103EF0003C20FFF70BFF0120FFF74AFF0CA0FFF764
:103F000059FEFDF743FD001BB042E6D340F2DC5002
:103F1000FDF74EFC00202860BDE87040FFF788BD2B
:103F2000A0030020341C00405061746F6E0000003C
:103F300050726F4375742D313030000070B54E4CA7
:103F400064204FF00A056388B3FBF0F200FB1232E5
:103F5000B3FBF0F1B3FBF0F600FB1630B0FBF5F36A
:103F6000B2FBF5F205FB130311F0FF0101D00120B4
:103F700000E0002000F094FB404D208869888842D2
:103F800079D03F49098821B1012927D0022970D170
:103F900049E0012809D1B4210F20FFF7B7FE002026
:103FA000FFF7F6FE37A0FFF705FE2088022809D1AB
:103FB000B4210F20FFF7AAFE0020FFF7E9FE35A08D
:103FC000FFF7F8FD2088032853D1B4210F20FFF715
:103FD0009DFE0020FFF7DCFE32A048E0012809D159
:103FE000B4210F20FFF792FE0020FFF7D1FE25A09D
:103FF000FFF7E0FD2088022809D1B4210F20FFF748
:1040000085FE0020FFF7C4FE22A0FFF7D3FD208825
:1040100003282ED1B4210F20FFF778FE0020FFF7F0
:10402000B7FE24A023E0012809D1B4210F20FFF717
:104030006DFE0120FFF7ACFE22A0FFF7BBFD20883C
:10404000022809D1B4210F20FFF760FE0120FFF7FD
:104050009FFE20A0FFF7AEFD2088032809D1B421E0
:104060000F20FFF753FE0120FFF792FE1DA0FFF780
:10407000A1FD2088688070BD10000020A8000020ED
:10408000000000204D62632E20676A6B6C6765201C
:10409000324F00004D62632E20676A6B6C676520AB
:1040A000344F00004D62632E6D6B5E6B6F65205464
:1040B0004C4700004D62632E6D6B5E6B6F78205431
:1040C0004C500000427574746F6E206D6F646520F3
:1040D00032540000427574746F6E206D6F646520F9
:1040E00034540000576F726B206D6F64652020435D
:1040F0004E43000038B54FF6FF74A6234FF4A07569
:104100002A46194600200094FFF734FBA5232A46CF
:10411000194600200094FFF72DFBA4232A461946D8
:1041200000200094FFF726FBA3232A46194600200F
:104130000094FFF71FFBC9220023A521104600941D
:10414000FFF718FBCA220023A52110460094FFF7B1
:1041500011FBCB220023A52110460094FFF70AFB98
:10416000CC220023A52110460094FFF703FB38BDA5
:1041700010B5154C208800281CD11448008820B1A7
:1041800001280BD0022813D115E014212D20FFF7B0
:10419000BDFD0020FFF7FCFD0DA007E0142141202C
:1041A000FFF7B4FD0020FFF7F3FD0BA0FFF702FDC2
:1041B0000120208010BD14211920FFF7A7FD012048
:1041C000FFF7E6FD05A0F1E7A800002000000020B1
:1041D0004E6F6D70690000004F6B6700437572721F
:1041E000656E740010B5FFF7A9FEFFF7C1FF00F080
:1041F000B3FE00F05DFB00F057FFBDE81040FCF798
:1042000031BF00007FB515481349002401604FF409
:104210008031C0E90114846111490462C0E90A14C3
:104220000125C0E90345C56145610463FDF75EFAF8
:1042300018B149210BA000F08CFF0520CDE9000545
:10424000694602940548FDF7A7F9002803D05321D9
:1042500004A000F07EFF7FBD002001400802002086
:104260000100000F2E2E2F5372632F6164632E63A3
:104270000000000070B526488EB0244901604FF45C
:1042800080310024C0E90114846122490462C0E93C
:104290000A140125C0E90345C56145610463FDF7C2
:1042A00025FA18B16D211CA000F053FFCDE90A5486
:1042B0000C2609A916480996FDF76EF918B1772161
:1042C00015A000F046FFCDE9006517480294CDE93E
:1042D00007040225CDE90454069469460C4803946A
:1042E000FDF718F818B187210BA000F032FF0D2060
:1042F000CDE9000569460648FDF70CF8002803D013
:10430000902105A000F025FF0EB070BD00220140F5
:10431000500200200100000F2E2E2F5372632F61D8
:1043200064632E630000000001000F002DE9F043DC
:10433000364887B00024016841F0800101600168BF
:1043400001F080010591016841F0040101600168FC
:1043500001F004010591016841F00101016001686B
:1043600001F001010591016841F00201016001685D
:1043700001F002010591016841F008010160006847
:10438000DFF88C9000F008000590002208214846D4
:10439000FDF7F7FADFF87C804FF49077002239467A
:1043A0004046FDF7EEFA08200125022603948DE829
:1043B000610069464846FDF70DFACDE90264CDE992
:1043C000007569464046FDF705FA49F20400CDE95B
:1043D0000004694610480294FDF7FCF938018DE8A5
:1043E000310069464046FDF7F5F928038DE83100B4
:1043F00069464846FDF7EEF904208DE8310069462C
:104400000648FDF7E7F907B0BDE8F0833038024011
:10441000000002400008024000040240000C02407C
:104420000E4810B50C4901600D49416000214FF460
:1044300080428160C0E9031241618161C161016212
:10444000FDF7AAFA002805D0BDE81040422105A0DA
:1044500000F07FBE10BD0000005400409802002014
:10446000801A06002E2E2F5372632F6932632E633B
:104470000000000010B5184888B0164901602821D6
:104480000024C0E901144FF47A71C0E90314FEF767
:104490003AF918B1AE2111A000F05BFE0E48FEF70C
:1044A00076FB18B1B3210DA000F053FE6020CDE9DA
:1044B000000402940022694607480494FEF7FFFABC
:1044C00018B1BC2105A000F044FE0348FEF7D0FA65
:1044D00008B010BD001C0040A00300202E2E2F535A
:1044E00072632F74696D2E630000000030B52A4896
:1044F000284991B00024202580E8320040F207715D
:10450000C0E903144461FEF742FB18B1432123A024
:1045100000F01FFECDE90E540EA91F48FEF758F813
:1045200018B14A211DA000F014FE7020CDE900044E
:104530000294039404940594002269461648069454
:10454000FEF7BDFA18B1562114A000F002FE60205B
:1045500000900C2269461048FEF7B1FA18B15C21B0
:104560000EA000F0F6FD0794089409944FF4005053
:104570000A94CDE90B4007A907480D94FDF7FBFF0E
:1045800018B1682105A000F0E4FD0348FEF770FAB9
:1045900011B030BD00000140EC0200202E2E2F5340
:1045A00072632F74696D2E630000000010B5184807
:1045B00086B01649016041F294110024C0E901144B
:1045C00042F21071C0E90314FEF79DF818B17B2187
:1045D00010A000F0BEFD4FF48050009069460C48DA
:1045E000FEF719F918B181210AA000F0B2FD049478
:1045F00004A907480594FDF7EBFF002803D08821A4
:1046000004A000F0A6FD06B010BD000000080040A8
:10461000280300202E2E2F5372632F74696D2E6392
:10462000000000001CB510480E490024016041F252
:104630009411C0E9011442F21071C160FEF763F8F1
:1046400018B1972109A000F084FD0094694606483E
:104650000194FDF7BDFF002803D09E2103A000F0C8
:1046600078FD1CBD00100040640300202E2E2F5347
:1046700072632F74696D2E6300000000FEE77047BF
:104680000907090E002806DA00F00F0000F1E0200B
:1046900080F8141D704700F1E02080F80014704786
:1046A00030B414460D4628B12146284630BC1A467F
:1046B00000F006B830BC1946104600F07FB8000084
:1046C0002DE9F04F934685B08A468146024639A1CE
:1046D00002A800F03FFD524636A103A800F03AFDC3
:1046E0005A4634A104A800F035FD334C00270225BA
:1046F000A1884FF478464FF6FF7849451AD05023E9
:104700003C2246210F200097FFF70EF9CDE9006506
:104710009DF80820434646210920FEF763FDCDE9B8
:1047200000659DF80820434646212920FEF7E2FD5A
:10473000A4F80490E18851451AD050233C22462128
:104740004B200097FFF7F0F8CDE900659DF80C20AD
:10475000434646214320FEF745FDCDE900659DF81F
:104760000C20434646216320FEF7C4FDA4F806A0B2
:10477000218959451BD050233C2246218720009790
:10478000FFF7D2F8CDE900659DF810204346462199
:104790007F20FEF727FDCDE900659DF810204346F8
:1047A00046219F20FEF7A6FDA4F808B0678105B05A
:1047B000BDE8F08F25640000A80000202DE9FF4728
:1047C00089468046024637A102A800F0C3FC4A464B
:1047D00034A103A800F0BEFC334C00274FF0020ABE
:1047E000A1884FF478454FF6FF7641451AD0502303
:1047F0003C2246210F200097FFF796F8CDE9005A9A
:104800009DF80820334646210920FEF7EBFCCDE950
:10481000005A9DF80820334646212920FEF76AFDFC
:10482000A4F80480E18849451BD050233C2246214E
:104830004B200097FFF778F8CDE9005AD0469DF855
:104840000C20334646214320FEF7CCFCCDE900582E
:104850009DF80C20334646216320FEF74BFDA4F85B
:1048600006902089B0421AD050233C22462187204E
:104870000097FFF759F84FF00308CDE90058334689
:1048800041225D218720FEF7B7FDCDE90058334670
:1048900041225D21A820FEF72FFE26816781BDE819
:1048A000FF87000025640000A8000020704700007A
:1048B0002DE9FC4726482749622782690988612635
:1048C0004FF070094FF02C084FF0720A8A4238D02E
:1048D000C9B34FF47844012181610320CDE900047C
:1048E000202358225521DC20FFF770F804250023EF
:1048F00042465921EE20CDE90045FEF7F5FB0023A5
:104900004A465621E420CDE90045FEF7EDFB0023A1
:104910003A465B21FD20CDE90045FEF7E5FB00238B
:1049200032465B2140F20D10CDE90045FEF7DCFB7D
:10493000002352465B2140F21D10CDE90045FEF7F1
:10494000D3FBBDE8FC87FFE74FF4FC640021C3E71D
:10495000A800002004000020704700002DE9FF5F40
:1049600000250DF10C0A4FF064090126514603950C
:104970008DE842020A234AF6E032A0215948FDF7A9
:104980008FF89DF80C000A2801D98DF80C50564874
:104990009DF80C104FF4004B0180544C544F80464E
:1049A00072E059463846FCF7E7FF70B9E089012804
:1049B0000BD1A681E581B8F80000401C80B2A8F8B0
:1049C0000000032801D1A8F800504FF48051384668
:1049D000FCF7D2FF78B9208A01280CD1A681258264
:1049E000B8F80010491E89B2A8F800100A2902D9A7
:1049F0000221A8F8001059463846FCF7BDFF0128EF
:104A000000D1E6814FF480513846FCF7B5FF01280C
:104A100000D12682B8F8000020B1012818D0022861
:104A200032D12EE0A08901282ED10020FFF700F816
:104A300064217820FFF76AF90020FFF7A9F92DA07B
:104A4000FFF7B8F891213C20FFF760F92BA014E0A4
:104A5000A089012818D10020FEF7EAFF6421782000
:104A6000FFF754F90020FFF793F927A0FFF7A2F80A
:104A700091215520FFF74AF925A0FFF79BF8A58162
:104A800002E0A089012819D004213846FCF774FF00
:104A9000002886D098F800008DF80C00CDF800A012
:104AA000CDE901690A234AF6E032A0210D48FDF75D
:104AB000F5F80020FEF7BCFFBDE8FF9F0020FEF7E1
:104AC000B7FF64215020FFF721F90120FFF760F9BB
:104AD00011A0FFF76FF891215A20FFF717F911A0E5
:104AE000CBE700009802002000000020A800002072
:104AF00000040240696B5F5D0000000050676D5D5F
:104B00007E6A6E79675D00007C6478670000000053
:104B10004D706E6E676566006C616E677561676586
:104B200000000000456E676C6973680010B5FDF702
:104B300079F9BDE81040FDF718BD000030B52748F1
:104B400093B00025016841F080510160006800F0D9
:104B5000805012902248016841F440410160006891
:104B6000022400F4404012900120009000040190C3
:104B70008001CDE9064008200890B420CDE9090461
:104B80000B9468460C94FDF72DFB00B1FEE7FDF792
:104B90000BFA00B1FEE70DA90F2081E831004FF4B8
:104BA000A05010904FF48050119005210DA8FDF7F2
:104BB00033FA00B1FEE7FDF7C7FA4FF47A71B0FBA4
:104BC000F1F0FDF7BEFC0420FDF7AEFC002211461B
:104BD000501EFDF7B7F913B030BD00004038024059
:104BE000007000401048016841F4700101600F48F6
:104BF000016841F0010101600C4A00210832116096
:104C000002680B4B1A400260031D0A4A1A600268D0
:104C100022F48022026005480C30016002495806E7
:104C2000803908607047000088ED00E000380240DD
:104C3000FFFFF6FE103000240448002141630449C0
:104C4000098801640348FDF760BE000000000140D0
:104C50001A000020EC0200200148FDF756BE0000BB
:104C6000EC02002003480188491C01800248FDF73E
:104C70004CBE00008C00002028030020034801885F
:104C8000491C01800248FDF740BE00008E00002054
:104C900064030020F0B50268234B244D244E254FB9
:104CA000254C4FF0804C984209D0604507D0A8426F
:104CB00005D0B04203D0B84201D0A04204D122F0C6
:104CC000700E4A6842EA0E0298421BD0604519D025
:104CD000A84217D0B04215D0B84213D0A04211D08C
:104CE000164DA8420ED0164DA8420BD0154DA84225
:104CF00008D0154DA84205D0144DA84202D0144D3D
:104D0000A84203D122F44075CA682A4302608A6827
:104D1000C2620A688262984201D0A04201D1096948
:104D2000016301214161F0BD000001400004004029
:104D300000080040000C0040000401400040014019
:104D4000004401400048014000180040001C0040A1
:104D50000020004010B50123046A8B409C4304628C
:104D6000036A8A401343036210BD10B50423046A2A
:104D70008B409C430462036A8A401343036210BD64
:104D800010B5846842EA032224F47F440A43224394
:104D9000826010BD826822F070020A4342F007016F
:104DA0008160704730B5026A22F001020262026A35
:104DB000436884690D6824F07304254322F00204DB
:104DC0008A6822430B4CA04202D00B4CA0420BD16C
:104DD00022F00804CA6823F4407322434C6922F08D
:104DE00004021C438B692343436085614968416326
:104DF000026230BD000001400004014030B5026A8B
:104E000022F010020262026A436884690D6824F489
:104E1000E64444EA05248D6822F0200242EA0512A5
:104E20000D4DA84202D00D4DA8420ED1CD6822F002
:104E3000800242EA05124D6923F4406343EA850388
:104E40008D6922F0400243EA85034360846149682A
:104E50008163026230BD0000000001400004014097
:104E600030B5026A22F480720262036A4268C46941
:104E700023F4007324F073050C682C438D6843EA17
:104E800005230D4DA84202D00C4DA8420ED1CD688D
:104E900023F4006343EA05234D6922F4405242EAB9
:104EA00005128D6923F4806342EA05124260C461F1
:104EB0004968C163036230BD000001400004014045
:104EC00030B5026A22F480520262046A4268C36901
:104ED0000D6823F4E64343EA05238D6824F4005467
:104EE00044EA0534084DA84202D0084DA84204D136
:104EF0004D6922F4804242EA85124260C3614968EA
:104F00000164046230BD0000000001400004014063
:104F100010B5036A046A24F001040462846924F071
:104F2000F00444EA021423F00A020A438461026294
:104F300010BD10B5036A23F0100303628369046A8D
:104F400023F4704343EA023224F0A00343EA011140
:104F50008261016210BD00002DE9FC411B481C4923
:104F600054264269098843258A422DD011B101296E
:104F700004D007E04FF4FC64002102E04FF47844D1
:104F8000012141610321CDE90014212358227D2113
:104F9000DC20FEF71BFD0023022284214FF48570E4
:104FA000FEF72CFB0427CDE900470023324683217E
:104FB000F220FEF799F8CDE9004700232A46832125
:104FC00040F20D10FEF790F8BDE8FC81A80000202B
:104FD000020000202DE9F0412C48FCF77BFA2C4C14
:104FE0002C480125E562D0F84002A08069022A48D9
:104FF000FCF7C2FC294B4FF47A7642F21072002182
:10500000D0B1A08840F69807B84205D2A7697F1CA6
:10501000A761974201D91960A161A0F69907B7F578
:10502000F97F0BD8E7697F1CE761974207D94FF4F6
:10503000FA77E1611F6002E01E600CE0E16140F67A
:105040008C27B84206D9206A401C2062904202D9BF
:105050002162F1E72162A68840F61650104B864285
:1050600006D960690F4F401C6061B84201D91D80AC
:105070006161B6F52F6F06D2606A401C6062904293
:1050800001D919806162BDE8F08100005002002062
:10509000C80100200020014000080240341C0040EC
:1050A00002000020A08601002DE9FC472648274980
:1050B0007227C269098863264FF054084FF06F09C0
:1050C0004FF0680A8A4238D0C9B34FF478440121BE
:1050D000C1610320CDE90004202358222D21DC20CA
:1050E000FEF774FC0425002342463321E120CDE97C
:1050F0000045FDF7F9FF00234A463321F020CDE9B2
:105100000045FDF7F1FF00233A463321FF20CDE9AA
:105110000045FDF7E9FF00233246332140F20F102E
:10512000CDE90045FDF7E0FF00235246332140F270
:105130001F10CDE90045FDF7D7FFBDE8FC87FFE76D
:105140004FF4FC640021C3E7A800002016000020F3
:10515000FEE7FEE70FB4084B10B504A902AA0398B6
:1051600000F0F0F8044602A9002000F06EFC204692
:1051700010BC5DF814FB00004B5A000837B514460C
:105180000846064B6A46214600F0DCF804466946AC
:10519000002000F05AFC20463EBD00004B5A00089B
:1051A00002E008C8121F08C1002AFAD170477047F0
:1051B000002001E001C1121F002AFBD1704700004E
:1051C0002DE9FF5F82B00021DDE90430020DDDF83A
:1051D00040B0034318D044F61050A2F2FF324243CD
:1051E0001514119801281FD0A5EB0B00401C5FEA95
:1051F000000A4FF000064E4FDFF83891B046504697
:1052000015D5CAF1000413E0119801244AA301281E
:1052100001D16FEA0B010298119AC0E90031C0E98F
:10522000024206B0BDE8F09FCBF10000DFE7044684
:105230000021404A491842EB0450CDE9001012E029
:10524000E00707D032463B4640464946FBF7E5F8C3
:105250008046894632463B4610461946FBF7DDF844
:1052600006460F466410002CEAD1DDE90401DDE9B1
:105270000023BAF1000F06DAFBF7CFF842464B469F
:10528000FBF7CBF805E0FBF73AF942464B46FBF754
:1052900036F904460E460022284BFBF7B7F903D82F
:1052A0004FF0FF30014607E00022254B20463146F3
:1052B000FBF70CF8FBF792F9102409E0002C0ADB4D
:1052C0000A220023FAF79CFF039B30321A55641E12
:1052D00050EA0102F2D1641C039AC4F11103144490
:1052E000119A012A03D0012208430DD10AE0084394
:1052F00004D000204FF0110B119072E7A3EB0B05C7
:105300006D1E0DE05B4504DD4FF0000205F1010567
:1053100004E003DA4FF00002A5F10105002AECD009
:1053200002981199C0E90231C0E9004579E700000F
:10533000000014400000F03F300000000000F04387
:105340000000E03F2DE9FF4F95B09A46884606469B
:105350000025EEE1252877D100242746F94A0121CE
:10536000039400E0044316F8013F203B01FA03F0E8
:105370001042F7D130782A2811D06FF02F033078FF
:10538000A0F13002092A16D8039A44F0020402EB75
:10539000820203EB42021044761C0390EFE758F8B8
:1053A000042B0392002A03DA504244F40054039081
:1053B00044F00204761C30782E2816D116F8010F1E
:1053C00044F004042A280DD06FF02F023078A0F1A9
:1053D0003003092B09D807EB870302EB4303C718F7
:1053E000761CF3E758F8047B761C30786C280FD0D5
:1053F00006DC4C2817D068280DD06A2814D104E0A8
:10540000742810D07A280FD10DE044F400140AE07B
:1054100044F4801401E044F440147278824202D1D2
:1054200004F58014761C761C307866280BD013DCCB
:10543000582877D009DC002875D04528F6D04628B2
:10544000F4D047281AD193E118E0632835D06428B6
:1054500079D0652812D18BE1702873D008DC6728D9
:10546000F1D069286FD06E280DD06F2806D1ACE03E
:1054700073282CD0752874D0782853D052461799A9
:1054800090476D1C54E1C4F30250022809D0032850
:105490000DD0D8F8001004280DD00D6008F10408D4
:1054A00046E1D8F80010EA17C1E90052F6E7D8F84B
:1054B00000100D80F2E70D70F0E718F8041B8DF86E
:1054C000001000208DF80100EB46012003E058F8A1
:1054D00004BB4FF0FF3061074FF0000102D40DE034
:1054E00009F101018946B9420FDA8145F8DB1BF861
:1054F00009100029F4D108E009F10101894681422F
:10550000FADB1BF809100029F6D103985346A0EBEB
:10551000090721463846179A00F080FA284400EB24
:10552000090507E044E008E10DE01BF8010B5246D5
:1055300017999047B9F10109F7D2534621463846E9
:10554000179AF2E039E00A21C4F302524FF0000B3F
:105550000091022A06D058F8040BC117032A09D07B
:105560000AE023E008F1070020F00702F2E8020158
:10557000904605E000B2C117042A01D140B2C1171C
:10558000002906DA0A460021404261EB02012D2281
:1055900002E0220504D52B228DF80420012203E02D
:1055A000E20701D02022F7E7914657E00A2100E008
:1055B00010214FF0000B00910BE010214FF0000B79
:1055C00044F004040827009103E008204FF0000B8A
:1055D0000090C4F30252022A05D058F8040B0021AF
:1055E000032A08D008E008F1070020F00702F2E8DB
:1055F0000201904603E080B2042A00D1C0B24FF00D
:10560000000922072AD53278702A07D0DDF800C0B9
:105610008CF0100C5CEA0B0C05D00EE040228DF8EB
:105620000420012208E050EA010306D030238DF85F
:1056300004308DF8052002229146009B83F0080378
:1056400053EA0B030AD150EA010201D1620705D5E2
:1056500030228DF804204FF001097F1E3278582A3D
:1056600004D039A20C920CAA02920BE03BA2F9E7FB
:105670005B46009AFAF7C4FD0C9B9B5C029A521E93
:105680000292137050EA0102F2D1029804A9081A9A
:1056900000F1200B600702D524F4803400E00127DC
:1056A0005F4502DDA7EB0B0000E0002000EB0B01E3
:1056B000009003984944401A0390E00306D45346EF
:1056C0002146179A039800F0A9F90544002706E03F
:1056D00001A85246C05D179990476D1C7F1C4F452D
:1056E000F6DBE0030CD553462146179A039800F0E9
:1056F00095F9054404E030205246179990476D1CF7
:105700000099481E00900029F5DC08E002980299F3
:1057100052460078491C0291179990476D1CBBF1C5
:105720000001ABF1010BF1DC5BE100F065F9054430
:10573000761C307800287FF40DAE19B02846BDE8FD
:10574000F08F00000928010030313233343536370C
:1057500038396162636465660000000030313233BD
:10576000343536373839414243444546000000005D
:10577000600700D4062708F1070020F00700F0E8D2
:105780000223804603F0004C5FEA0C0001D097A092
:1057900009E0200501D596A005E0E00701D095A01D
:1057A00001E0AFF24C001390307823F000436528FD
:1057B0000CD006DC452809D046281DD047287FD1CB
:1057C0003BE0662818D067287AD136E00021112FF7
:1057D00001DB112000E0781CCDE9000104A90CA830
:1057E000FFF7EEFCDDE90D010C9A4FF0000B07F11D
:1057F0000109109200914EE04FF000400097CDE972
:10580000011004A90CA8FFF7DBFCDDE90D020C9BDD
:105810000F994FF0000B91461093009211B9791C2B
:1058200000EB0109B7EB090003D4C0F1FF3B07F11E
:105830000109A9EB0700019042E0012F00DA0127DE
:105840000021112F01DD112000E03846CDE90001D3
:1058500004A90CA8FFF7B4FCDDE90D010C9A009136
:105860004FF0000BB946109221070FD4009A4A4519
:1058700003DA914601E0A9F10109B9F1010F05DD53
:10588000109AA9F10101515C3029F4D0B84202DA32
:1058900010F1040F03DA0121CDE9011010E0002816
:1058A00003DC8344A9EB000102E0411C494500DD13
:1058B0008946A0EB0B00401C01904FF00040029085
:1058C000200705D40198484502DB4FF0FF300190D6
:1058D00000208DF84B0002980DF14B07B0F1004FFE
:1058E00025D002200C902B200D90029800280CDA75
:1058F000404202902D200D9007E00A210298FAF70D
:10590000B0FC3031029007F8011D0C99481E0C9034
:105910000029F2DC02980028EFD1791E0D9808705A
:10592000307800F0200040F0450007F8020D11A883
:10593000C01BC01D02901398007800B1012000EB3D
:105940000901019801EBE071029801440398401AA3
:10595000401E0390E00306D453462146179A03984D
:1059600000F05CF805441398007818B15246179976
:1059700090476D1CE00323D553462146179A0398A0
:1059800000F04CF805441BE0BBF1000F07DB00986A
:10599000584504DD1098179910F80B0001E017998D
:1059A00030205246904701980BF1010B401E05F143
:1059B0000105019004D12E205246179990476D1C85
:1059C000B9F10001A9F10109DEDC05E017F8010BCE
:1059D0005246179990476D1C0299481E0290002963
:1059E000F4DC53462146179A03989EE62D000000EA
:1059F0002B000000200000002DE9F04104460025A6
:105A00001E461746880404D405E039462020B047D6
:105A10006D1C641EF9D52846BDE8F0812DE9F041E2
:105A2000044600251E469046C80301D5302700E0F5
:105A30002027880404D505E041463846B0476D1C50
:105A4000641EF9D52846BDE8F0810A68531C0B6036
:105A500010707047002802D000BF401EFCD1704774
:105A6000FCF7E8F9FFF76AF8FEF760FCFEF7CAFBFF
:105A7000FEF700FDFEF79AFDFEF7D4FDFEF7D0FC21
:105A8000FEF734FDFEF7F6FB6420FBF791FEFEF710
:105A90000DFAFEF763FFFEF72DFB2448FBF754FBDE
:105AA000234840F2A4610164642141632148FCF76A
:105AB00083FE1E4D204EDFF884A04EF660274FF483
:105AC000805B4FF001084FF00009A5F10C0400BF06
:105AD000D6F83C0260601548FAF7F0FEFBF790FB41
